:100420000A173F065B4F666D7D077F6F020F000066
:1004300002090018010801020D0000020B00000271
:0F0440001300000215000002110000022100004D
:10034100AE11AF127C007D0A12030BAC06AD077F24
:0103510001AA
:10035200EF14B40800505490036775F003A4C583EA
:1003620025F0C5837302037F02038302038B02031A
:100372008F02039702039B0203A30203A7C2A0807A
:1003820002D2A0C2A1C2A28022C2A08002D2A0D266
:10039200A1C2A28016C2A08002D2A0C2A1D2A28013
:1003A2000AC2A08002D2A0D2A1D2A274172DF8E66E
:0303B200F58022B1
:10046500758910758B18758DFCD28ED2ABD2AFC243
:02047500BB22A8
:1000EA001203417F057E00120450AE11AF127C004C
:1000FA007D0A12030B7F021203527F057E0012044F
:10010A0050AE21AF227C007D0A12030BAC06AD076C
:10011A007F031203527F057E00120450AE21AF22E4
:10012A007C007D0A12030B7F041203520F7E001219
:10013A000450AD14AC137F051203527E0012045012
:10014A00AD16AC157F061203521F7E00120450AE84
:10015A000DAF0E7C007D0A1202B6AC06AD077F0712
:10016A001203527F057E00120450AE0DAF0E7C00C2
:10017A007D0A1202B67F081203527F057E0002042E
:01018A005024
:10018B001203417F057E00120450AE11AF127C00AA
:10019B007D0A12030B7F021203527F057E001204AD
:1001AB0050AE21AF227C007D0A12030BAC06AD07CB
:1001BB007F031203527F057E00120450AE21AF2243
:1001CB007C007D0A12030B7F041203520F7E001278
:1001DB000450E4FDFC7F051203527E00120450E430
:1001EB00FDFC7F061203521F7E00120450AE09AFB6
:1001FB000A7C007D0A1202B6AC06AD077F0712031C
:10020B00527F057E00120450AE09AF0A7C007D0AB6
:0F021B001202B67F081203527F057E00020450C4
:1003B500E4F5232090117F05FE1204503090FD05D1
:1003C50012E512700205112091127F057E001204BC
:1003D500503091FDE5121512700215112092127F11
:1003E500057E001204503092FD0522E522700205BB
:1003F500212093127F057E001204503093FDE522E3
:10040500152270021521209411D2AF7FC87E0012EB
:0A0415000450209402C2AF3094FDA1
:01041F0022BA
:03001B0002001EC2
:10001E00C0E0C0F0C0D075D000C000C004C005C0A4
:10002E0006C0070510E5107002050FE5086075C3E0
:10003E00E51094E8E50F940350030200D3E50C6439
:10004E0001450B700AE50E6424450D7002F5080596
:10005E000EE50E7002050D750F00751000C3943C71
:10006E00E50D9400405F050CE50C7002050B750D57
:10007E0000750E00940AE50B94004020AE0BAF0CF9
:10008E007C007D0A1202B68E138F14AE0BAF0C7C61
:10009E00007D0A1202B68C158D168029850B1585EA
:1000AE000C168021C3E51094E8E50F94034016E585
:1000BE000A150A70021509750F00751000E50A453C
:1000CE00097002C28E758B18758DFCD007D006D0C4
:0C00DE0005D004D000D0D0D0F0D0E0322B
:10000300120465E50860081203B51200EA80F412D1
:0700130003B512018B80F818
:10045000EF1FAC0670011E4C600A7D027CEFDCFED3
:04046000DDFC80EC53
:010464002275
:0300000002022ACF
:0C022A00787FE4F6D8FD75812302027194
:1002B600BC000BBE0029EF8DF084FFADF022E4CC2C
:1002C600F875F008EF2FFFEE33FEEC33FCEE9DECF5
:1002D600984005FCEE9DFE0FD5F0E9E4CEFD22ED3B
:1002E600F8F5F0EE8420D21CFEADF075F008EF2F85
:1002F600FFED33FD4007985006D5F0F222C398FD76
:050306000FD5F0EA2212
:10030B00C2D5EC30E709B2D5E4C39DFDE49CFCEE0D
:10031B0030E715B2D5E4C39FFFE49EFE1202B6C3CD
:10032B00E49DFDE49CFC80031202B630D507C3E4C8
:06033B009FFFE49EFE227C
:10023600020003E493A3F8E493A34003F68001F2DB
:1002460008DFF48029E493A3F85407240CC8C333C9
:10025600C4540F4420C8834004F456800146F6DF98
:10026600E4800B0102040810204080900420E47E04
:10027600019360BCA3FF543F30E509541FFEE4938D
:10028600A360010ECF54C025E060A840B8E493A354
:10029600FAE493A3F8E493A3C8C582C8CAC583CA7F
:1002A600F0A3C8C582C8CAC583CADFE9DEE780BE37
:01044F0000AC
:00000001FF
